{
  "contractName": "WitmonMock",
  "abi": [
    {
      "inputs": [
        {
          "internalType": "address",
          "name": "_signator",
          "type": "address"
        }
      ],
      "stateMutability": "nonpayable",
      "type": "constructor"
    },
    {
      "anonymous": false,
      "inputs": [
        {
          "indexed": false,
          "internalType": "address",
          "name": "signator",
          "type": "address"
        },
        {
          "indexed": false,
          "internalType": "contract IWitmonDecorator",
          "name": "decorator",
          "type": "address"
        },
        {
          "indexed": false,
          "internalType": "uint8[]",
          "name": "percentileMarks",
          "type": "uint8[]"
        },
        {
          "indexed": false,
          "internalType": "uint256",
          "name": "expirationBlocks",
          "type": "uint256"
        }
      ],
      "name": "BatchParameters",
      "type": "event"
    },
    {
      "anonymous": false,
      "inputs": [
        {
          "indexed": false,
          "internalType": "uint256",
          "name": "eggIndex",
          "type": "uint256"
        },
        {
          "indexed": false,
          "internalType": "uint256",
          "name": "tokenId",
          "type": "uint256"
        }
      ],
      "name": "NewCreature",
      "type": "event"
    },
    {
      "anonymous": false,
      "inputs": [
        {
          "indexed": false,
          "internalType": "string",
          "name": "reason",
          "type": "string"
        }
      ],
      "name": "WitnetError",
      "type": "event"
    },
    {
      "anonymous": false,
      "inputs": [
        {
          "indexed": false,
          "internalType": "bytes32",
          "name": "randomness",
          "type": "bytes32"
        }
      ],
      "name": "WitnetResult",
      "type": "event"
    },
    {
      "inputs": [
        {
          "internalType": "address",
          "name": "_eggOwner",
          "type": "address"
        },
        {
          "internalType": "uint256",
          "name": "_eggIndex",
          "type": "uint256"
        },
        {
          "internalType": "uint256",
          "name": "",
          "type": "uint256"
        },
        {
          "internalType": "uint256",
          "name": "",
          "type": "uint256"
        },
        {
          "internalType": "uint256",
          "name": "_eggRanking",
          "type": "uint256"
        },
        {
          "internalType": "uint256",
          "name": "_totalClaimedEggs",
          "type": "uint256"
        },
        {
          "internalType": "bytes",
          "name": "_signature",
          "type": "bytes"
        }
      ],
      "name": "mintCreature",
      "outputs": [],
      "stateMutability": "nonpayable",
      "type": "function"
    }
  ],
  "bytecode": "0x608060405234801561001057600080fd5b5060405161040f38038061040f83398101604081905261002f91610054565b600080546001600160a01b0319166001600160a01b0392909216919091179055610084565b60006020828403121561006657600080fd5b81516001600160a01b038116811461007d57600080fd5b9392505050565b61037c806100936000396000f3fe608060405234801561001057600080fd5b506004361061002b5760003560e01c806337e219b014610030575b600080fd5b61004361003e366004610285565b610045565b005b6040516bffffffffffffffffffffffff1960608a901b16602082015260348101889052605481018590526074810184905260009060940160408051601f198184030181528282528051602091820120600054601f870183900483028501830190935285845293506001600160a01b03909116916100df91849190879087908190840183828082843760009201919091525061019a92505050565b6001600160a01b0316146101395760405162461bcd60e51b815260206004820152601b60248201527f5769746d6f6e4552433732313a20626164207369676e61747572650000000000604482015260640160405180910390fd5b610147600880546001019055565b600061015260085490565b604080518b8152602081018390529192507f22050ec7af2d31649668d13e49c000e1424a846f48d70f041f387573a7e28033910160405180910390a150505050505050505050565b600081516041146101ad5750600061027f565b60208201516040830151606084015160001a7f7fffffffffffffffffffffffffffffff5d576e7357a4501ddfe92f46681b20a08211156101f3576000935050505061027f565b8060ff16601b1415801561020b57508060ff16601c14155b1561021c576000935050505061027f565b60408051600081526020810180835288905260ff831691810191909152606081018490526080810183905260019060a0016020604051602081039080840390855afa15801561026f573d6000803e3d6000fd5b5050506020604051035193505050505b92915050565b60008060008060008060008060e0898b0312156102a157600080fd5b88356001600160a01b03811681146102b857600080fd5b97506020890135965060408901359550606089013594506080890135935060a0890135925060c089013567ffffffffffffffff808211156102f857600080fd5b818b0191508b601f83011261030c57600080fd5b81358181111561031b57600080fd5b8c602082850101111561032d57600080fd5b602083019450809350505050929598509295989093965056fea26469706673582212201d0470e7c6279f3722e7631f229793057534b8bd5b248a9b123dc75253b56b0964736f6c63430008070033",
  "immutableReferences": {},
  "source": "// SPDX-License-Identifier: MIT\npragma solidity ^0.8.0;\n\nimport \"../contracts/WitmonDecoratorBase.sol\";\nimport \"../contracts/interfaces/IWitmonEvents.sol\";\nimport \"../contracts/interfaces/IWitmonSurrogates.sol\";\nimport \"../contracts/libs/Witmons.sol\";\n\nimport \"@openzeppelin/contracts/utils/Strings.sol\";\nimport \"@openzeppelin/contracts/utils/Strings.sol\";\n\n\ncontract WitmonMock is IWitmonSurrogates, IWitmonEvents {\n    using Counters for Counters.Counter;\n    using Witmons for Witmons.State;\n\n    Witmons.State internal _state;\n\n    constructor(\n            address _signator // public key of backend server\n        )\n    {\n        _state.params.signator = _signator;\n    }\n\n    function mintCreature(\n            address _eggOwner,\n            uint256 _eggIndex,\n            uint256, //_eggColorIndex,\n            uint256, // _eggScore,\n            uint256 _eggRanking,\n            uint256 _totalClaimedEggs,\n            bytes calldata _signature\n        )\n        external\n        override\n    {\n        // Verify signator:\n        bytes32 _eggHash = keccak256(abi.encodePacked(\n            _eggOwner,\n            _eggIndex,\n            // ..\n            _eggRanking,            \n            _totalClaimedEggs\n        ));\n        require(\n            Witmons.recoverAddr(_eggHash, _signature) == _state.params.signator,\n            \"WitmonERC721: bad signature\"\n        );\n\n        // // Verify not already minted:\n        // require(\n        //     _state.creatures[_eggIndex].tokenId == 0,\n        //     \"WitmonERC721: already minted\"\n        // );\n\n        // Increment token supply:\n        _state.totalSupply.increment();\n        uint256 _tokenId = _state.totalSupply.current();\n\n        // // Fulfill creature data:\n        // uint8 _percentile100 = _eggRanking > _totalClaimedEggs\n        //     ? 100 \n        //     : uint8((_eggRanking * 100) / _totalClaimedEggs)\n        // ;\n        // Witmons.Creature memory _creature = Witmons.Creature({\n        //     tokenId: _tokenId,\n        //     eggBirth: block.number,\n        //     eggCategory: _state.creatureCategory(_percentile100),\n        //     eggColorIndex: _eggColorIndex,\n        //     eggIndex: _eggIndex,\n        //     eggScore: _eggScore,\n        //     eggRanking: _eggRanking,\n        //     eggPhenotype: keccak256(abi.encodePacked(\n        //         _signature,\n        //         _state.witnetRandomness\n        //     ))\n        // });\n        // _state.creatures[_eggIndex] = _creature;\t\t\n        // _state.eggIndex_[_tokenId] = _eggIndex;\n\n        // // Mint the token:\n        // _safeMint(_eggOwner, _tokenId);\n        emit NewCreature(_eggIndex, _tokenId);\n    }\n\n}",
  "sourcePath": "/home/tommy/development/witnet/witmon/packages/core/contracts/WitmonMock.sol",
  "compiler": {
    "name": "solc",
    "version": "0.8.7+commit.e28d00a7.Emscripten.clang"
  },
  "schemaVersion": "3.4.3",
  "updatedAt": "2021-10-08T13:39:12.156Z",
  "networkType": "ethereum",
  "devdoc": {
    "kind": "dev",
    "methods": {},
    "version": 1
  },
  "userdoc": {
    "kind": "user",
    "methods": {},
    "version": 1
  }
}