{
  "contractName": "WitmonERC721",
  "abi": [
    {
      "inputs": [
        {
          "internalType": "contract WitnetRequestBoard",
          "name": "_witnet",
          "type": "address"
        },
        {
          "internalType": "contract IWitmonDecorator",
          "name": "_decorator",
          "type": "address"
        },
        {
          "internalType": "string",
          "name": "_name",
          "type": "string"
        },
        {
          "internalType": "string",
          "name": "_symbol",
          "type": "string"
        },
        {
          "internalType": "address",
          "name": "_signator",
          "type": "address"
        },
        {
          "internalType": "uint8[]",
          "name": "_percentileMarks",
          "type": "uint8[]"
        },
        {
          "internalType": "uint256",
          "name": "_expirationBlocks",
          "type": "uint256"
        }
      ],
      "stateMutability": "nonpayable",
      "type": "constructor"
    },
    {
      "anonymous": false,
      "inputs": [
        {
          "indexed": true,
          "internalType": "address",
          "name": "owner",
          "type": "address"
        },
        {
          "indexed": true,
          "internalType": "address",
          "name": "approved",
          "type": "address"
        },
        {
          "indexed": true,
          "internalType": "uint256",
          "name": "tokenId",
          "type": "uint256"
        }
      ],
      "name": "Approval",
      "type": "event"
    },
    {
      "anonymous": false,
      "inputs": [
        {
          "indexed": true,
          "internalType": "address",
          "name": "owner",
          "type": "address"
        },
        {
          "indexed": true,
          "internalType": "address",
          "name": "operator",
          "type": "address"
        },
        {
          "indexed": false,
          "internalType": "bool",
          "name": "approved",
          "type": "bool"
        }
      ],
      "name": "ApprovalForAll",
      "type": "event"
    },
    {
      "anonymous": false,
      "inputs": [
        {
          "indexed": false,
          "internalType": "address",
          "name": "signator",
          "type": "address"
        },
        {
          "indexed": false,
          "internalType": "uint8[]",
          "name": "percentileMarks",
          "type": "uint8[]"
        },
        {
          "indexed": false,
          "internalType": "uint256",
          "name": "expirationBlocks",
          "type": "uint256"
        }
      ],
      "name": "BatchParameters",
      "type": "event"
    },
    {
      "anonymous": false,
      "inputs": [
        {
          "indexed": false,
          "internalType": "contract IWitmonDecorator",
          "name": "decorator",
          "type": "address"
        }
      ],
      "name": "DecoratorSet",
      "type": "event"
    },
    {
      "anonymous": false,
      "inputs": [
        {
          "indexed": false,
          "internalType": "uint256",
          "name": "eggIndex",
          "type": "uint256"
        },
        {
          "indexed": false,
          "internalType": "uint256",
          "name": "tokenId",
          "type": "uint256"
        }
      ],
      "name": "NewCreature",
      "type": "event"
    },
    {
      "anonymous": false,
      "inputs": [
        {
          "indexed": true,
          "internalType": "address",
          "name": "previousOwner",
          "type": "address"
        },
        {
          "indexed": true,
          "internalType": "address",
          "name": "newOwner",
          "type": "address"
        }
      ],
      "name": "OwnershipTransferred",
      "type": "event"
    },
    {
      "anonymous": false,
      "inputs": [
        {
          "indexed": true,
          "internalType": "address",
          "name": "from",
          "type": "address"
        },
        {
          "indexed": true,
          "internalType": "address",
          "name": "to",
          "type": "address"
        },
        {
          "indexed": true,
          "internalType": "uint256",
          "name": "tokenId",
          "type": "uint256"
        }
      ],
      "name": "Transfer",
      "type": "event"
    },
    {
      "anonymous": false,
      "inputs": [
        {
          "indexed": false,
          "internalType": "string",
          "name": "reason",
          "type": "string"
        }
      ],
      "name": "WitnetError",
      "type": "event"
    },
    {
      "anonymous": false,
      "inputs": [
        {
          "indexed": false,
          "internalType": "bytes32",
          "name": "randomness",
          "type": "bytes32"
        }
      ],
      "name": "WitnetResult",
      "type": "event"
    },
    {
      "inputs": [
        {
          "internalType": "address",
          "name": "to",
          "type": "address"
        },
        {
          "internalType": "uint256",
          "name": "tokenId",
          "type": "uint256"
        }
      ],
      "name": "approve",
      "outputs": [],
      "stateMutability": "nonpayable",
      "type": "function"
    },
    {
      "inputs": [
        {
          "internalType": "address",
          "name": "owner",
          "type": "address"
        }
      ],
      "name": "balanceOf",
      "outputs": [
        {
          "internalType": "uint256",
          "name": "",
          "type": "uint256"
        }
      ],
      "stateMutability": "view",
      "type": "function"
    },
    {
      "inputs": [
        {
          "internalType": "uint256",
          "name": "tokenId",
          "type": "uint256"
        }
      ],
      "name": "getApproved",
      "outputs": [
        {
          "internalType": "address",
          "name": "",
          "type": "address"
        }
      ],
      "stateMutability": "view",
      "type": "function"
    },
    {
      "inputs": [
        {
          "internalType": "address",
          "name": "owner",
          "type": "address"
        },
        {
          "internalType": "address",
          "name": "operator",
          "type": "address"
        }
      ],
      "name": "isApprovedForAll",
      "outputs": [
        {
          "internalType": "bool",
          "name": "",
          "type": "bool"
        }
      ],
      "stateMutability": "view",
      "type": "function"
    },
    {
      "inputs": [],
      "name": "name",
      "outputs": [
        {
          "internalType": "string",
          "name": "",
          "type": "string"
        }
      ],
      "stateMutability": "view",
      "type": "function"
    },
    {
      "inputs": [],
      "name": "owner",
      "outputs": [
        {
          "internalType": "address",
          "name": "",
          "type": "address"
        }
      ],
      "stateMutability": "view",
      "type": "function"
    },
    {
      "inputs": [
        {
          "internalType": "uint256",
          "name": "tokenId",
          "type": "uint256"
        }
      ],
      "name": "ownerOf",
      "outputs": [
        {
          "internalType": "address",
          "name": "",
          "type": "address"
        }
      ],
      "stateMutability": "view",
      "type": "function"
    },
    {
      "inputs": [],
      "name": "renounceOwnership",
      "outputs": [],
      "stateMutability": "nonpayable",
      "type": "function"
    },
    {
      "inputs": [
        {
          "internalType": "address",
          "name": "from",
          "type": "address"
        },
        {
          "internalType": "address",
          "name": "to",
          "type": "address"
        },
        {
          "internalType": "uint256",
          "name": "tokenId",
          "type": "uint256"
        }
      ],
      "name": "safeTransferFrom",
      "outputs": [],
      "stateMutability": "nonpayable",
      "type": "function"
    },
    {
      "inputs": [
        {
          "internalType": "address",
          "name": "from",
          "type": "address"
        },
        {
          "internalType": "address",
          "name": "to",
          "type": "address"
        },
        {
          "internalType": "uint256",
          "name": "tokenId",
          "type": "uint256"
        },
        {
          "internalType": "bytes",
          "name": "_data",
          "type": "bytes"
        }
      ],
      "name": "safeTransferFrom",
      "outputs": [],
      "stateMutability": "nonpayable",
      "type": "function"
    },
    {
      "inputs": [
        {
          "internalType": "address",
          "name": "operator",
          "type": "address"
        },
        {
          "internalType": "bool",
          "name": "approved",
          "type": "bool"
        }
      ],
      "name": "setApprovalForAll",
      "outputs": [],
      "stateMutability": "nonpayable",
      "type": "function"
    },
    {
      "inputs": [
        {
          "internalType": "bytes4",
          "name": "interfaceId",
          "type": "bytes4"
        }
      ],
      "name": "supportsInterface",
      "outputs": [
        {
          "internalType": "bool",
          "name": "",
          "type": "bool"
        }
      ],
      "stateMutability": "view",
      "type": "function"
    },
    {
      "inputs": [],
      "name": "symbol",
      "outputs": [
        {
          "internalType": "string",
          "name": "",
          "type": "string"
        }
      ],
      "stateMutability": "view",
      "type": "function"
    },
    {
      "inputs": [
        {
          "internalType": "address",
          "name": "from",
          "type": "address"
        },
        {
          "internalType": "address",
          "name": "to",
          "type": "address"
        },
        {
          "internalType": "uint256",
          "name": "tokenId",
          "type": "uint256"
        }
      ],
      "name": "transferFrom",
      "outputs": [],
      "stateMutability": "nonpayable",
      "type": "function"
    },
    {
      "inputs": [
        {
          "internalType": "address",
          "name": "newOwner",
          "type": "address"
        }
      ],
      "name": "transferOwnership",
      "outputs": [],
      "stateMutability": "nonpayable",
      "type": "function"
    },
    {
      "inputs": [],
      "name": "witnet",
      "outputs": [
        {
          "internalType": "contract WitnetRequestBoard",
          "name": "",
          "type": "address"
        }
      ],
      "stateMutability": "view",
      "type": "function"
    },
    {
      "inputs": [],
      "name": "baseURI",
      "outputs": [
        {
          "internalType": "string",
          "name": "",
          "type": "string"
        }
      ],
      "stateMutability": "view",
      "type": "function"
    },
    {
      "inputs": [
        {
          "internalType": "uint256",
          "name": "_tokenId",
          "type": "uint256"
        }
      ],
      "name": "metadata",
      "outputs": [
        {
          "internalType": "string",
          "name": "",
          "type": "string"
        }
      ],
      "stateMutability": "view",
      "type": "function"
    },
    {
      "inputs": [
        {
          "internalType": "uint256",
          "name": "_tokenId",
          "type": "uint256"
        }
      ],
      "name": "tokenURI",
      "outputs": [
        {
          "internalType": "string",
          "name": "",
          "type": "string"
        }
      ],
      "stateMutability": "view",
      "type": "function"
    },
    {
      "inputs": [
        {
          "internalType": "contract IWitmonDecorator",
          "name": "_decorator",
          "type": "address"
        }
      ],
      "name": "setDecorator",
      "outputs": [],
      "stateMutability": "nonpayable",
      "type": "function"
    },
    {
      "inputs": [
        {
          "internalType": "address",
          "name": "_signator",
          "type": "address"
        },
        {
          "internalType": "uint8[]",
          "name": "_percentileMarks",
          "type": "uint8[]"
        },
        {
          "internalType": "uint256",
          "name": "_expirationBlocks",
          "type": "uint256"
        }
      ],
      "name": "setParameters",
      "outputs": [],
      "stateMutability": "nonpayable",
      "type": "function"
    },
    {
      "inputs": [],
      "name": "stopBatching",
      "outputs": [],
      "stateMutability": "payable",
      "type": "function"
    },
    {
      "inputs": [],
      "name": "startHatching",
      "outputs": [],
      "stateMutability": "nonpayable",
      "type": "function"
    },
    {
      "inputs": [
        {
          "internalType": "address",
          "name": "_eggOwner",
          "type": "address"
        },
        {
          "internalType": "uint256",
          "name": "_eggIndex",
          "type": "uint256"
        },
        {
          "internalType": "uint256",
          "name": "_eggRanking",
          "type": "uint256"
        },
        {
          "internalType": "uint256",
          "name": "_eggScore",
          "type": "uint256"
        },
        {
          "internalType": "uint256",
          "name": "_totalClaimedEggs",
          "type": "uint256"
        },
        {
          "internalType": "bytes",
          "name": "_signature",
          "type": "bytes"
        }
      ],
      "name": "mintCreature",
      "outputs": [],
      "stateMutability": "nonpayable",
      "type": "function"
    },
    {
      "inputs": [
        {
          "internalType": "address",
          "name": "_eggOwner",
          "type": "address"
        },
        {
          "internalType": "uint256",
          "name": "_eggIndex",
          "type": "uint256"
        },
        {
          "internalType": "uint256",
          "name": "_eggRanking",
          "type": "uint256"
        },
        {
          "internalType": "uint256",
          "name": "_eggScore",
          "type": "uint256"
        },
        {
          "internalType": "uint256",
          "name": "_totalClaimedEggs",
          "type": "uint256"
        },
        {
          "internalType": "bytes",
          "name": "_signature",
          "type": "bytes"
        }
      ],
      "name": "previewCreatureImage",
      "outputs": [
        {
          "internalType": "string",
          "name": "",
          "type": "string"
        }
      ],
      "stateMutability": "view",
      "type": "function"
    },
    {
      "inputs": [
        {
          "internalType": "uint256",
          "name": "_eggIndex",
          "type": "uint256"
        }
      ],
      "name": "getCreatureData",
      "outputs": [
        {
          "components": [
            {
              "internalType": "uint256",
              "name": "tokenId",
              "type": "uint256"
            },
            {
              "internalType": "uint256",
              "name": "eggBirth",
              "type": "uint256"
            },
            {
              "internalType": "uint256",
              "name": "eggIndex",
              "type": "uint256"
            },
            {
              "internalType": "uint256",
              "name": "eggScore",
              "type": "uint256"
            },
            {
              "internalType": "uint256",
              "name": "eggRanking",
              "type": "uint256"
            },
            {
              "internalType": "bytes32",
              "name": "eggPhenotype",
              "type": "bytes32"
            },
            {
              "internalType": "enum Witmons.CreatureCategory",
              "name": "eggCategory",
              "type": "uint8"
            }
          ],
          "internalType": "struct Witmons.Creature",
          "name": "",
          "type": "tuple"
        }
      ],
      "stateMutability": "view",
      "type": "function"
    },
    {
      "inputs": [
        {
          "internalType": "uint256",
          "name": "_eggIndex",
          "type": "uint256"
        }
      ],
      "name": "getCreatureImage",
      "outputs": [
        {
          "internalType": "string",
          "name": "",
          "type": "string"
        }
      ],
      "stateMutability": "view",
      "type": "function"
    },
    {
      "inputs": [
        {
          "internalType": "uint256",
          "name": "_eggIndex",
          "type": "uint256"
        }
      ],
      "name": "getCreatureStatus",
      "outputs": [
        {
          "internalType": "enum Witmons.CreatureStatus",
          "name": "",
          "type": "uint8"
        }
      ],
      "stateMutability": "view",
      "type": "function"
    },
    {
      "inputs": [],
      "name": "getDecorator",
      "outputs": [
        {
          "internalType": "contract IWitmonDecorator",
          "name": "",
          "type": "address"
        }
      ],
      "stateMutability": "view",
      "type": "function"
    },
    {
      "inputs": [],
      "name": "getParameters",
      "outputs": [
        {
          "components": [
            {
              "internalType": "address",
              "name": "signator",
              "type": "address"
            },
            {
              "internalType": "uint8[]",
              "name": "percentileMarks",
              "type": "uint8[]"
            },
            {
              "internalType": "uint256",
              "name": "expirationBlocks",
              "type": "uint256"
            }
          ],
          "internalType": "struct Witmons.Parameters",
          "name": "",
          "type": "tuple"
        }
      ],
      "stateMutability": "view",
      "type": "function"
    },
    {
      "inputs": [],
      "name": "getStats",
      "outputs": [
        {
          "internalType": "uint256",
          "name": "_totalSupply",
          "type": "uint256"
        }
      ],
      "stateMutability": "view",
      "type": "function"
    },
    {
      "inputs": [],
      "name": "getStatus",
      "outputs": [
        {
          "internalType": "enum Witmons.Status",
          "name": "",
          "type": "uint8"
        }
      ],
      "stateMutability": "view",
      "type": "function"
    }
  ],
  "bytecode": "0x60a06040523480156200001157600080fd5b5060405162004daf38038062004daf833981016040819052620000349162000a6c565b86858581600090805190602001906200004f929190620007f6565b50805162000065906001906020840190620007f6565b505050620000826200007c6200019760201b60201c565b6200019b565b60016007556001600160a01b038116620000e35760405162461bcd60e51b815260206004820152601960248201527f5573696e675769746e65743a207a65726f20616464726573730000000000000060448201526064015b60405180910390fd5b60601b6001600160601b031916608052620000fe86620001ed565b6200010b838383620002e4565b604051620001199062000885565b6020808252808201527f0a0f120508021a01801a0210022202100b10e807180a200a2833308094ebdc036040820152606001604051809103906000f08015801562000168573d6000803e3d6000fd5b50600c80546001600160a01b0319166001600160a01b03929092169190911790555062000d5895505050505050565b3390565b600680546001600160a01b038381166001600160a01b0319831681179093556040519116919082907f8be0079c531659141344cd1fd0a4f28419497f9722a3daafe3b4186f6b6457e090600090a35050565b6006546001600160a01b03163314620002385760405162461bcd60e51b8152602060048201819052602482015260008051602062004d6d8339815191526044820152606401620000da565b6001600160a01b038116620002905760405162461bcd60e51b815260206004820152601a60248201527f5769746d6f6e4552433732313a206e6f206465636f7261746f720000000000006044820152606401620000da565b600b80546001600160a01b0319166001600160a01b0383169081179091556040519081527f17b37ee811fab07dfe76ad0139a0a6c475ff575dd6721e0ccc0786c1c9d579209060200160405180910390a150565b6006546001600160a01b031633146200032f5760405162461bcd60e51b8152602060048201819052602482015260008051602062004d6d8339815191526044820152606401620000da565b6000806200034960086200062860201b62001efc1760201c565b60038111156200035d576200035d62000cfd565b1462000374826200068460201b62001f511760201c565b90620003955760405162461bcd60e51b8152600401620000da919062000ba9565b506001600160a01b038416620003ee5760405162461bcd60e51b815260206004820152601960248201527f5769746d6f6e4552433732313a206e6f207369676e61746f72000000000000006044820152606401620000da565b620003fc6002600162000c2c565b60ff168351146200045b5760405162461bcd60e51b815260206004820152602260248201527f5769746d6f6e4552433732313a206261642070657263656e74696c65206d61726044820152616b7360f01b6064820152608401620000da565b82516001600160401b0381111562000477576200047762000d29565b604051908082528060200260200182016040528015620004a1578160200160208202803683370190505b508051620004b89160099160209091019062000893565b506000805b84518160ff1610156200055f576000858260ff1681518110620004e457620004e462000d13565b602002602001015190508060086000016001018360ff16815481106200050e576200050e62000d13565b90600052602060002090602091828204019190066101000a81548160ff021916908360ff160217905550808362000546919062000c2c565b9250508080620005569062000cc4565b915050620004bd565b508060ff16606414620005c35760405162461bcd60e51b815260206004820152602560248201527f5769746d6f6e4552433732313a206261642070657263656e74696c6520636865604482015264636b73756d60d81b6064820152608401620000da565b600880546001600160a01b0319166001600160a01b038716179055600a8390556040517f4f91d5a2a59ed6db9618e1c449fb9da42fd4e3952e95514dc546adbcbe971cc490620006199087908790879062000b45565b60405180910390a15050505050565b6006810154600090156200066457600282015460078301546200064c919062000c11565b43116200065b5760026200065e565b60035b92915050565b6005820154156200067757506001919050565b506000919050565b919050565b606060038260038111156200069d576200069d62000cfd565b1415620006dd57505060408051808201909152601e81527f5769746d6f6e733a206e6f7420696e20467265657a6564207374617475730000602082015290565b6000826003811115620006f457620006f462000cfd565b14156200073457505060408051808201909152601f81527f5769746d6f6e733a206e6f7420696e204261746368696e672073746174757300602082015290565b60018260038111156200074b576200074b62000cfd565b1415620007725760405180606001604052806022815260200162004d8d6022913992915050565b600282600381111562000789576200078962000cfd565b1415620007c957505060408051808201909152601f81527f5769746d6f6e733a206e6f7420696e204861746368696e672073746174757300602082015290565b505060408051808201909152601181527015da5d1b5bdb9cce88189859081b5bdbd9607a1b602082015290565b828054620008049062000c87565b90600052602060002090601f01602090048101928262000828576000855562000873565b82601f106200084357805160ff191683800117855562000873565b8280016001018555821562000873579182015b828111156200087357825182559160200191906001019062000856565b506200088192915062000936565b5090565b61051c806200485183390190565b82805482825590600052602060002090601f01602090048101928215620008735791602002820160005b83821115620008fd57835183826101000a81548160ff021916908360ff1602179055509260200192600101602081600001049283019260010302620008bd565b80156200092c5782816101000a81549060ff0219169055600101602081600001049283019260010302620008fd565b5050620008819291505b5b8082111562000881576000815560010162000937565b80516200067f8162000d3f565b600082601f8301126200096c57600080fd5b815160206001600160401b038211156200098a576200098a62000d29565b8160051b6200099b82820162000bde565b838152828101908684018388018501891015620009b757600080fd5b60009350835b86811015620009ea57815160ff81168114620009d7578586fd5b84529285019290850190600101620009bd565b509098975050505050505050565b600082601f83011262000a0a57600080fd5b81516001600160401b0381111562000a265762000a2662000d29565b62000a3b601f8201601f191660200162000bde565b81815284602083860101111562000a5157600080fd5b62000a6482602083016020870162000c54565b949350505050565b600080600080600080600060e0888a03121562000a8857600080fd5b875162000a958162000d3f565b602089015190975062000aa88162000d3f565b60408901519096506001600160401b038082111562000ac657600080fd5b62000ad48b838c01620009f8565b965060608a015191508082111562000aeb57600080fd5b62000af98b838c01620009f8565b955062000b0960808b016200094d565b945060a08a015191508082111562000b2057600080fd5b5062000b2f8a828b016200095a565b92505060c0880151905092959891949750929550565b6001600160a01b038416815260606020808301829052845191830182905260009185820191906080850190845b8181101562000b9357845160ff168352938301939183019160010162000b72565b5050809350505050826040830152949350505050565b602081526000825180602084015262000bca81604085016020870162000c54565b601f01601f19169190910160400192915050565b604051601f8201601f191681016001600160401b038111828210171562000c095762000c0962000d29565b604052919050565b6000821982111562000c275762000c2762000ce7565b500190565b600060ff821660ff84168060ff0382111562000c4c5762000c4c62000ce7565b019392505050565b60005b8381101562000c7157818101518382015260200162000c57565b8381111562000c81576000848401525b50505050565b600181811c9082168062000c9c57607f821691505b6020821081141562000cbe57634e487b7160e01b600052602260045260246000fd5b50919050565b600060ff821660ff81141562000cde5762000cde62000ce7565b60010192915050565b634e487b7160e01b600052601160045260246000fd5b634e487b7160e01b600052602160045260246000fd5b634e487b7160e01b600052603260045260246000fd5b634e487b7160e01b600052604160045260246000fd5b6001600160a01b038116811462000d5557600080fd5b50565b60805160601c613ab062000da16000396000818161034501528181610e4801528181610f170152818161101f01528181612403015281816128060152612b630152613ab06000f3fe6080604052600436106101e35760003560e01c80638da5cb5b11610102578063d9be414511610095578063e985e9c511610064578063e985e9c51461059e578063ef0a78de146105be578063f2fde38b146105de578063f5e0de1c146105fe57600080fd5b8063d9be41451461051e578063dbe83c5b1461053e578063e27f20511461055e578063e3684e391461057e57600080fd5b8063b88d4fde116100d1578063b88d4fde146104ab578063c59d4847146104cb578063c87b56dd146104e0578063d8f6de531461050057600080fd5b80638da5cb5b1461043657806395d89b4114610454578063a22cb46514610469578063a5ea11da1461048957600080fd5b806346d1d21a1161017a5780636c0360eb116101495780636c0360eb146103c957806370a08231146103de578063715018a61461040c57806376e933e41461042157600080fd5b806346d1d21a146103335780634e69d56014610367578063568508fe146103895780636352211e146103a957600080fd5b8063095ea7b3116101b6578063095ea7b3146102a457806323b872dd146102c657806329ce1338146102e657806342842e0e1461031357600080fd5b806301ffc9a7146101e8578063054df6411461021d57806306fdde031461024a578063081812fc1461026c575b600080fd5b3480156101f457600080fd5b506102086102033660046131b8565b610606565b60405190151581526020015b60405180910390f35b34801561022957600080fd5b5061023d6102383660046133e9565b610658565b6040516102149190613660565b34801561025657600080fd5b5061025f6106fb565b6040516102149190613575565b34801561027857600080fd5b5061028c6102873660046133e9565b61078d565b6040516001600160a01b039091168152602001610214565b3480156102b057600080fd5b506102c46102bf3660046130e1565b610827565b005b3480156102d257600080fd5b506102c46102e1366004612ef4565b61093d565b3480156102f257600080fd5b506103066103013660046133e9565b61096e565b6040516102149190613547565b34801561031f57600080fd5b506102c461032e366004612ef4565b6109f7565b34801561033f57600080fd5b5061028c7f000000000000000000000000000000000000000000000000000000000000000081565b34801561037357600080fd5b5061037c610a12565b6040516102149190613561565b34801561039557600080fd5b5061025f6103a43660046133e9565b610a23565b3480156103b557600080fd5b5061028c6103c43660046133e9565b610ba1565b3480156103d557600080fd5b5061025f610c18565b3480156103ea57600080fd5b506103fe6103f9366004612e9e565b610c99565b604051908152602001610214565b34801561041857600080fd5b506102c4610d20565b34801561042d57600080fd5b506102c4610d56565b34801561044257600080fd5b506006546001600160a01b031661028c565b34801561046057600080fd5b5061025f61110f565b34801561047557600080fd5b506102c46104843660046130b3565b61111e565b34801561049557600080fd5b5061049e6111e3565b60405161021491906136c0565b3480156104b757600080fd5b506102c46104c6366004612f35565b6112af565b3480156104d757600080fd5b506103fe6112e7565b3480156104ec57600080fd5b5061025f6104fb3660046133e9565b6112f2565b34801561050c57600080fd5b50600b546001600160a01b031661028c565b34801561052a57600080fd5b506102c4610539366004612e9e565b61139b565b34801561054a57600080fd5b506102c4610559366004612fde565b61146f565b34801561056a57600080fd5b506102c461057936600461310d565b611756565b34801561058a57600080fd5b5061025f6105993660046133e9565b6119e2565b3480156105aa57600080fd5b506102086105b9366004612ebb565b611b8a565b3480156105ca57600080fd5b5061025f6105d936600461310d565b611bb8565b3480156105ea57600080fd5b506102c46105f9366004612e9e565b611d2f565b6102c4611dca565b60006001600160e01b031982166380ac58cd60e01b148061063757506001600160e01b03198216635b5e139f60e01b145b8061065257506301ffc9a760e01b6001600160e01b03198316145b92915050565b610660612d27565b600860090160008381526020019081526020016000206040518060e00160405290816000820154815260200160018201548152602001600282015481526020016003820154815260200160048201548152602001600582015481526020016006820160009054906101000a900460ff1660028111156106e1576106e16139ce565b60028111156106f2576106f26139ce565b90525092915050565b60606000805461070a90613908565b80601f016020809104026020016040519081016040528092919081815260200182805461073690613908565b80156107835780601f1061075857610100808354040283529160200191610783565b820191906000526020600020905b81548152906001019060200180831161076657829003601f168201915b5050505050905090565b6000818152600260205260408120546001600160a01b031661080b5760405162461bcd60e51b815260206004820152602c60248201527f4552433732313a20617070726f76656420717565727920666f72206e6f6e657860448201526b34b9ba32b73a103a37b5b2b760a11b60648201526084015b60405180910390fd5b506000908152600460205260409020546001600160a01b031690565b600061083282610ba1565b9050806001600160a01b0316836001600160a01b031614156108a05760405162461bcd60e51b815260206004820152602160248201527f4552433732313a20617070726f76616c20746f2063757272656e74206f776e656044820152603960f91b6064820152608401610802565b336001600160a01b03821614806108bc57506108bc8133611b8a565b61092e5760405162461bcd60e51b815260206004820152603860248201527f4552433732313a20617070726f76652063616c6c6572206973206e6f74206f7760448201527f6e6572206e6f7220617070726f76656420666f7220616c6c00000000000000006064820152608401610802565b61093883836120b2565b505050565b6109473382612120565b6109635760405162461bcd60e51b81526004016108029061360f565b6109388383836121f7565b600081815260116020526040812060058101541561098f5750600392915050565b600061099b6008611efc565b905060028160038111156109b1576109b16139ce565b14156109c1575060029392505050565b60038160038111156109d5576109d56139ce565b14156109e5575060049392505050565b5060019392505050565b505b50919050565b610938838383604051806020016040528060008152506112af565b6000610a1e6008611efc565b905090565b60606003610a308361096e565b6004811115610a4157610a416139ce565b14610a8e5760405162461bcd60e51b815260206004820152601b60248201527f5769746d6f6e4552433732313a206e6f7420616c6976652079657400000000006044820152606401610802565b6000828152601160209081526040808320815160e08101835281548152600182015493810193909352600280820154928401929092526003810154606084015260048101546080840152600581015460a08401526006810154909160c084019160ff1690811115610b0157610b016139ce565b6002811115610b1257610b126139ce565b905250600b546040516379971bb160e01b81529192506001600160a01b0316906379971bb190610b46908490600401613660565b60006040518083038186803b158015610b5e57600080fd5b505afa158015610b72573d6000803e3d6000fd5b505050506040513d6000823e601f3d908101601f19168201604052610b9a91908101906131f2565b9392505050565b6000818152600260205260408120546001600160a01b0316806106525760405162461bcd60e51b815260206004820152602960248201527f4552433732313a206f776e657220717565727920666f72206e6f6e657869737460448201526832b73a103a37b5b2b760b91b6064820152608401610802565b600b5460408051636c0360eb60e01b815290516060926001600160a01b031691636c0360eb916004808301926000929190829003018186803b158015610c5d57600080fd5b505afa158015610c71573d6000803e3d6000fd5b505050506040513d6000823e601f3d908101601f19168201604052610a1e91908101906131f2565b60006001600160a01b038216610d045760405162461bcd60e51b815260206004820152602a60248201527f4552433732313a2062616c616e636520717565727920666f7220746865207a65604482015269726f206164647265737360b01b6064820152608401610802565b506001600160a01b031660009081526003602052604090205490565b6006546001600160a01b03163314610d4a5760405162461bcd60e51b8152600401610802906135da565b610d546000612397565b565b6006546001600160a01b03163314610d805760405162461bcd60e51b8152600401610802906135da565b600180610d8d6008611efc565b6003811115610d9e57610d9e6139ce565b14610da882611f51565b90610dc65760405162461bcd60e51b81526004016108029190613575565b50600d54610dd3816123e9565b610e2f5760405162461bcd60e51b815260206004820152602760248201527f5769746d6f6e4552433732313a2072616e646f6d6e657373206e6f7420796574604482015266081cdbdb1d995960ca1b6064820152608401610802565b6040516335369a6b60e21b8152600481018290526000907f00000000000000000000000000000000000000000000000000000000000000006001600160a01b03169063d4da69ac9060240160006040518083038186803b158015610e9257600080fd5b505afa158015610ea6573d6000803e3d6000fd5b505050506040513d6000823e601f3d908101601f19168201604052610ece919081019061329c565b80519091501561100057602081015151518051601f60f81b91906001908110610ef957610ef96139e4565b60200101906001600160f81b031916908160001a9053506000610fba7f00000000000000000000000000000000000000000000000000000000000000006001600160a01b031663c683b465846040518263ffffffff1660e01b8152600401610f619190613704565b60006040518083038186803b158015610f7957600080fd5b505afa158015610f8d573d6000803e3d6000fd5b505050506040513d6000823e601f3d908101601f19168201604052610fb591908101906131f2565b61249d565b43600f55600e8190556040518181529091507f87533c4aa2bce6bb1a8da08048c3c2e7a2354a95b8b431b22fd33d50c753b687906020015b60405180910390a150505050565b6000600d55604051636ba401df60e11b81526060906001600160a01b037f0000000000000000000000000000000000000000000000000000000000000000169063d74803be90611054908590600401613704565b60006040518083038186803b15801561106c57600080fd5b505afa9250505080156110a157506040513d6000823e601f3d908101601f1916820160405261109e9190810190613226565b60015b6110dc573d8080156110cf576040519150601f19603f3d011682016040523d82523d6000602084013e6110d4565b606091505b5090506110e0565b9150505b7f35428cf83cc52cee3e71741c8bbdd0bec00d1ecd4c993c61bca8de8b2c3fd3da81604051610ff29190613575565b60606001805461070a90613908565b6001600160a01b0382163314156111775760405162461bcd60e51b815260206004820152601960248201527f4552433732313a20617070726f766520746f2063616c6c6572000000000000006044820152606401610802565b3360008181526005602090815260408083206001600160a01b03871680855290835292819020805460ff191686151590811790915590519081529192917f17307eab39ab6107e8899845ad3d59bd9653f200f220920489ca2b5937696c31910160405180910390a35050565b611210604051806060016040528060006001600160a01b0316815260200160608152602001600081525090565b60408051606081018252600880546001600160a01b0316825260098054845160208281028201810190965281815293949293838601939092919083018282801561129757602002820191906000526020600020906000905b825461010083900a900460ff168152602060019283018181049485019490930390920291018084116112685790505b50505050508152602001600282015481525050905090565b6112b93383612120565b6112d55760405162461bcd60e51b81526004016108029061360f565b6112e184848484612505565b50505050565b6000610a1e60105490565b606081611316816000908152600260205260409020546001600160a01b0316151590565b6113625760405162461bcd60e51b815260206004820152601e60248201527f5769746e65744552433732313a20696e6578697374656e7420746f6b656e00006044820152606401610802565b61136a610c18565b61137384612538565b6040516020016113849291906134a7565b604051602081830303815290604052915050919050565b6006546001600160a01b031633146113c55760405162461bcd60e51b8152600401610802906135da565b6001600160a01b03811661141b5760405162461bcd60e51b815260206004820152601a60248201527f5769746d6f6e4552433732313a206e6f206465636f7261746f720000000000006044820152606401610802565b600b80546001600160a01b0319166001600160a01b0383169081179091556040519081527f17b37ee811fab07dfe76ad0139a0a6c475ff575dd6721e0ccc0786c1c9d579209060200160405180910390a150565b6006546001600160a01b031633146114995760405162461bcd60e51b8152600401610802906135da565b6000806114a66008611efc565b60038111156114b7576114b76139ce565b146114c182611f51565b906114df5760405162461bcd60e51b81526004016108029190613575565b506001600160a01b0384166115365760405162461bcd60e51b815260206004820152601960248201527f5769746d6f6e4552433732313a206e6f207369676e61746f72000000000000006044820152606401610802565b6115426002600161386d565b60ff1683511461159f5760405162461bcd60e51b815260206004820152602260248201527f5769746d6f6e4552433732313a206261642070657263656e74696c65206d61726044820152616b7360f01b6064820152608401610802565b82516001600160401b038111156115b8576115b86139fa565b6040519080825280602002602001820160405280156115e1578160200160208202803683370190505b5080516115f691600991602090910190612d77565b506000805b84518160ff161015611691576000858260ff168151811061161e5761161e6139e4565b602002602001015190508060086000016001018360ff1681548110611645576116456139e4565b90600052602060002090602091828204019190066101000a81548160ff021916908360ff160217905550808361167b919061386d565b925050808061168990613958565b9150506115fb565b508060ff166064146116f35760405162461bcd60e51b815260206004820152602560248201527f5769746d6f6e4552433732313a206261642070657263656e74696c6520636865604482015264636b73756d60d81b6064820152608401610802565b600880546001600160a01b0319166001600160a01b038716179055600a8390556040517f4f91d5a2a59ed6db9618e1c449fb9da42fd4e3952e95514dc546adbcbe971cc49061174790879087908790613513565b60405180910390a15050505050565b600260075414156117a95760405162461bcd60e51b815260206004820152601f60248201527f5265656e7472616e637947756172643a207265656e7472616e742063616c6c006044820152606401610802565b60026007819055806117bb6008611efc565b60038111156117cc576117cc6139ce565b146117d682611f51565b906117f45760405162461bcd60e51b81526004016108029190613575565b50611839888888888888888080601f01602080910402602001604051908101604052809392919081815260200183838082843760009201919091525061263592505050565b600087815260116020526040902054156118955760405162461bcd60e51b815260206004820152601c60248201527f5769746d6f6e4552433732313a20616c7265616479206d696e746564000000006044820152606401610802565b6118a3601080546001019055565b60006118ae60105490565b905060006118f782438b8b8b8b8b8b8080601f01602080910402602001604051908101604052809392919081815260200183838082843760009201919091525061270392505050565b905080600860090160008b8152602001908152602001600020600082015181600001556020820151816001015560408201518160020155606082015181600301556080820151816004015560a0820151816005015560c08201518160060160006101000a81548160ff02191690836002811115611976576119766139ce565b0217905550505060008281526012602052604090208990556119988a836127bb565b604080518a8152602081018490527f22050ec7af2d31649668d13e49c000e1424a846f48d70f041f387573a7e28033910160405180910390a1505060016007555050505050505050565b606081611a06816000908152600260205260409020546001600160a01b0316151590565b611a525760405162461bcd60e51b815260206004820152601e60248201527f5769746e65744552433732313a20696e6578697374656e7420746f6b656e00006044820152606401610802565b60008381526012602090815260408083205480845260118352818420825160e08101845281548152600182015494810194909452600280820154938501939093526003810154606085015260048101546080850152600581015460a0850152600681015491949392909160c084019160ff90911690811115611ad657611ad66139ce565b6002811115611ae757611ae76139ce565b90525080519091508514611afd57611afd61398c565b600b546040516338684b0360e01b81526001600160a01b03909116906338684b0390611b2d908490600401613660565b60006040518083038186803b158015611b4557600080fd5b505afa158015611b59573d6000803e3d6000fd5b505050506040513d6000823e601f3d908101601f19168201604052611b8191908101906131f2565b95945050505050565b6001600160a01b03918216600090815260056020908152604080832093909416825291909152205460ff1690565b6060600280611bc76008611efc565b6003811115611bd857611bd86139ce565b14611be282611f51565b90611c005760405162461bcd60e51b81526004016108029190613575565b50611c45898989898989898080601f01602080910402602001604051908101604052809392919081815260200183838082843760009201919091525061263592505050565b600860030160009054906101000a90046001600160a01b03166001600160a01b03166379971bb1611cb26000808c8c8c8c8c8c8080601f01602080910402602001604051908101604052809392919081815260200183838082843760009201919091525061270392505050565b6040518263ffffffff1660e01b8152600401611cce9190613660565b60006040518083038186803b158015611ce657600080fd5b505afa158015611cfa573d6000803e3d6000fd5b505050506040513d6000823e601f3d908101601f19168201604052611d2291908101906131f2565b9998505050505050505050565b6006546001600160a01b03163314611d595760405162461bcd60e51b8152600401610802906135da565b6001600160a01b038116611dbe5760405162461bcd60e51b815260206004820152602660248201527f4f776e61626c653a206e6577206f776e657220697320746865207a65726f206160448201526564647265737360d01b6064820152608401610802565b611dc781612397565b50565b60026007541415611e1d5760405162461bcd60e51b815260206004820152601f60248201527f5265656e7472616e637947756172643a207265656e7472616e742063616c6c006044820152606401610802565b60026007556006546001600160a01b03163314611e4c5760405162461bcd60e51b8152600401610802906135da565b600080611e596008611efc565b6003811115611e6a57611e6a6139ce565b14611e7482611f51565b90611e925760405162461bcd60e51b81526004016108029190613575565b50600c54600090611eab906001600160a01b03166127d9565b600d91909155905034811015611ef357336108fc611ec983346138c5565b6040518115909202916000818181858888f19350505050158015611ef1573d6000803e3d6000fd5b505b50506001600755565b600681015460009015611f325760028201546007830154611f1d9190613855565b4311611f2a576002610652565b600392915050565b600582015415611f4457506001919050565b506000919050565b919050565b60606003826003811115611f6757611f676139ce565b1415611fa657505060408051808201909152601e81527f5769746d6f6e733a206e6f7420696e20467265657a6564207374617475730000602082015290565b6000826003811115611fba57611fba6139ce565b1415611ff957505060408051808201909152601f81527f5769746d6f6e733a206e6f7420696e204261746368696e672073746174757300602082015290565b600182600381111561200d5761200d6139ce565b141561203257604051806060016040528060228152602001613a596022913992915050565b6002826003811115612046576120466139ce565b141561208557505060408051808201909152601f81527f5769746d6f6e733a206e6f7420696e204861746368696e672073746174757300602082015290565b505060408051808201909152601181527015da5d1b5bdb9cce88189859081b5bdbd9607a1b602082015290565b600081815260046020526040902080546001600160a01b0319166001600160a01b03841690811790915581906120e782610ba1565b6001600160a01b03167f8c5be1e5ebec7d5bd14f71427d1e84f3dd0314c0f7b2291e5b200ac8c7c3b92560405160405180910390a45050565b6000818152600260205260408120546001600160a01b03166121995760405162461bcd60e51b815260206004820152602c60248201527f4552433732313a206f70657261746f7220717565727920666f72206e6f6e657860448201526b34b9ba32b73a103a37b5b2b760a11b6064820152608401610802565b60006121a483610ba1565b9050806001600160a01b0316846001600160a01b031614806121df5750836001600160a01b03166121d48461078d565b6001600160a01b0316145b806121ef57506121ef8185611b8a565b949350505050565b826001600160a01b031661220a82610ba1565b6001600160a01b0316146122725760405162461bcd60e51b815260206004820152602960248201527f4552433732313a207472616e73666572206f6620746f6b656e2074686174206960448201526839903737ba1037bbb760b91b6064820152608401610802565b6001600160a01b0382166122d45760405162461bcd60e51b8152602060048201526024808201527f4552433732313a207472616e7366657220746f20746865207a65726f206164646044820152637265737360e01b6064820152608401610802565b6122df6000826120b2565b6001600160a01b03831660009081526003602052604081208054600192906123089084906138c5565b90915550506001600160a01b0382166000908152600360205260408120805460019290612336908490613855565b909155505060008181526002602052604080822080546001600160a01b0319166001600160a01b0386811691821790925591518493918716917fddf252ad1be2c89b69c2b068fc378daa952ba7f163c4a11628f55a4df523b3ef91a4505050565b600680546001600160a01b038381166001600160a01b0319831681179093556040519116919082907f8be0079c531659141344cd1fd0a4f28419497f9722a3daafe3b4186f6b6457e090600090a35050565b60006002604051631bc1eaf360e21b8152600481018490527f00000000000000000000000000000000000000000000000000000000000000006001600160a01b031690636f07abcc9060240160206040518083038186803b15801561244d57600080fd5b505afa158015612461573d6000803e3d6000fd5b505050506040513d601f19601f82011682018060405250810190612485919061327b565b6003811115612496576124966139ce565b1492915050565b60008060208351116124b05782516124b3565b60205b905060005b818110156109ef576124cb8160086138a6565b8482815181106124dd576124dd6139e4565b01602001516001600160f81b031916901c9290921791806124fd8161393d565b9150506124b8565b6125108484846121f7565b61251c8484848461288d565b6112e15760405162461bcd60e51b815260040161080290613588565b60608161255c5750506040805180820190915260018152600360fc1b602082015290565b8160005b811561258657806125708161393d565b915061257f9050600a83613892565b9150612560565b6000816001600160401b038111156125a0576125a06139fa565b6040519080825280601f01601f1916602001820160405280156125ca576020820181803683370190505b5090505b84156121ef576125df6001836138c5565b91506125ec600a86613978565b6125f7906030613855565b60f81b81838151811061260c5761260c6139e4565b60200101906001600160f81b031916908160001a90535061262e600a86613892565b94506125ce565b6040516bffffffffffffffffffffffff19606088901b1660208201526034810186905260548101859052607481018490526094810183905260009060b40160408051601f1981840301815291905280516020909101206008549091506001600160a01b03166126a4828461299a565b6001600160a01b0316146126fa5760405162461bcd60e51b815260206004820152601b60248201527f5769746d6f6e4552433732313a20626164207369676e617475726500000000006044820152606401610802565b50505050505050565b61270b612d27565b600083861161272f57836127208760646138a6565b61272a9190613892565b612732565b60645b90506040518060e001604052808a815260200189815260200188815260200186815260200187815260200184600860060154604051602001612775929190613485565b60408051601f19818403018152919052805160209182012082520161279b600884612a84565b60028111156127ac576127ac6139ce565b90529998505050505050505050565b6127d5828260405180602001604052806000815250612b18565b5050565b6000806127e4612b4b565b60405163b281a7bd60e01b81526001600160a01b0385811660048301529192507f00000000000000000000000000000000000000000000000000000000000000009091169063b281a7bd9083906024016020604051808303818588803b15801561284d57600080fd5b505af1158015612861573d6000803e3d6000fd5b50505050506040513d601f19601f820116820180604052508101906128869190613402565b9150915091565b60006001600160a01b0384163b1561298f57604051630a85bd0160e11b81526001600160a01b0385169063150b7a02906128d19033908990889088906004016134d6565b602060405180830381600087803b1580156128eb57600080fd5b505af192505050801561291b575060408051601f3d908101601f19168201909252612918918101906131d5565b60015b612975573d808015612949576040519150601f19603f3d011682016040523d82523d6000602084013e61294e565b606091505b50805161296d5760405162461bcd60e51b815260040161080290613588565b805181602001fd5b6001600160e01b031916630a85bd0160e11b1490506121ef565b506001949350505050565b600081516041146129ad57506000610652565b60208201516040830151606084015160001a7f7fffffffffffffffffffffffffffffff5d576e7357a4501ddfe92f46681b20a08211156129f35760009350505050610652565b8060ff16601b14158015612a0b57508060ff16601c14155b15612a1c5760009350505050610652565b60408051600081526020810180835288905260ff831691810191909152606081018490526080810183905260019060a0016020604051602081039080840390855afa158015612a6f573d6000803e3d6000fd5b5050604051601f190151979650505050505050565b60008060005b600185015460ff83161015612b035760018501805460ff8416908110612ab257612ab26139e4565b90600052602060002090602091828204019190069054906101000a900460ff1681612add919061386d565b90508060ff168460ff1611612af157612b03565b81612afb81613958565b925050612a8a565b8160ff166002811115611b8157611b816139ce565b612b228383612be5565b612b2f600084848461288d565b6109385760405162461bcd60e51b815260040161080290613588565b60405163d2e8756160e01b81523a60048201526000907f00000000000000000000000000000000000000000000000000000000000000006001600160a01b03169063d2e875619060240160206040518083038186803b158015612bad57600080fd5b505afa158015612bc1573d6000803e3d6000fd5b505050506040513d601f19601f82011682018060405250810190610a1e9190613402565b6001600160a01b038216612c3b5760405162461bcd60e51b815260206004820181905260248201527f4552433732313a206d696e7420746f20746865207a65726f20616464726573736044820152606401610802565b6000818152600260205260409020546001600160a01b031615612ca05760405162461bcd60e51b815260206004820152601c60248201527f4552433732313a20746f6b656e20616c7265616479206d696e746564000000006044820152606401610802565b6001600160a01b0382166000908152600360205260408120805460019290612cc9908490613855565b909155505060008181526002602052604080822080546001600160a01b0319166001600160a01b03861690811790915590518392907fddf252ad1be2c89b69c2b068fc378daa952ba7f163c4a11628f55a4df523b3ef908290a45050565b6040518060e0016040528060008152602001600081526020016000815260200160008152602001600081526020016000801916815260200160006002811115612d7257612d726139ce565b905290565b82805482825590600052602060002090601f01602090048101928215612e0d5791602002820160005b83821115612dde57835183826101000a81548160ff021916908360ff1602179055509260200192600101602081600001049283019260010302612da0565b8015612e0b5782816101000a81549060ff0219169055600101602081600001049283019260010302612dde565b505b50612e19929150612e1d565b5090565b5b80821115612e195760008155600101612e1e565b600082601f830112612e4357600080fd5b8151612e56612e518261382e565b6137fe565b818152846020838601011115612e6b57600080fd5b6121ef8260208301602087016138dc565b80516001600160401b0381168114611f4c57600080fd5b8051611f4c81613a49565b600060208284031215612eb057600080fd5b8135610b9a81613a10565b60008060408385031215612ece57600080fd5b8235612ed981613a10565b91506020830135612ee981613a10565b809150509250929050565b600080600060608486031215612f0957600080fd5b8335612f1481613a10565b92506020840135612f2481613a10565b929592945050506040919091013590565b60008060008060808587031215612f4b57600080fd5b8435612f5681613a10565b93506020850135612f6681613a10565b92506040850135915060608501356001600160401b03811115612f8857600080fd5b8501601f81018713612f9957600080fd5b8035612fa7612e518261382e565b818152886020838501011115612fbc57600080fd5b8160208401602083013760006020838301015280935050505092959194509250565b600080600060608486031215612ff357600080fd5b8335612ffe81613a10565b92506020848101356001600160401b038082111561301b57600080fd5b818701915087601f83011261302f57600080fd5b813581811115613041576130416139fa565b8060051b91506130528483016137fe565b8181528481019084860184860187018c101561306d57600080fd5b600095505b8386101561309c578035945061308785613a49565b84835260019590950194918601918601613072565b50979a979950505050604095909501359450505050565b600080604083850312156130c657600080fd5b82356130d181613a10565b91506020830135612ee981613a25565b600080604083850312156130f457600080fd5b82356130ff81613a10565b946020939093013593505050565b600080600080600080600060c0888a03121561312857600080fd5b873561313381613a10565b96506020880135955060408801359450606088013593506080880135925060a08801356001600160401b038082111561316b57600080fd5b818a0191508a601f83011261317f57600080fd5b81358181111561318e57600080fd5b8b60208285010111156131a057600080fd5b60208301945080935050505092959891949750929550565b6000602082840312156131ca57600080fd5b8135610b9a81613a33565b6000602082840312156131e757600080fd5b8151610b9a81613a33565b60006020828403121561320457600080fd5b81516001600160401b0381111561321a57600080fd5b6121ef84828501612e32565b6000806040838503121561323957600080fd5b8251610100811061324957600080fd5b60208401519092506001600160401b0381111561326557600080fd5b61327185828601612e32565b9150509250929050565b60006020828403121561328d57600080fd5b815160048110610b9a57600080fd5b600060208083850312156132af57600080fd5b82516001600160401b03808211156132c657600080fd5b90840190604082870312156132da57600080fd5b6132e26137b4565b82516132ed81613a25565b8152828401518281111561330057600080fd5b929092019160c0838803121561331557600080fd5b61331d6137dc565b83518381111561332c57600080fd5b84016040818a03121561333e57600080fd5b6133466137b4565b81518581111561335557600080fd5b6133618b828501612e32565b82525086820151945063ffffffff8516851461337c57600080fd5b808701859052825250613390848601612e93565b858201526133a060408501612e93565b60408201526133b160608501612e93565b60608201526133c260808501612e7c565b60808201526133d360a08501612e7c565b60a0820152938101939093525090949350505050565b6000602082840312156133fb57600080fd5b5035919050565b60006020828403121561341457600080fd5b5051919050565b600081518084526020808501945080840160005b8381101561344e57815160ff168752958201959082019060010161342f565b509495945050505050565b600081518084526134718160208601602086016138dc565b601f01601f19169290920160200192915050565b600083516134978184602088016138dc565b9190910191825250602001919050565b600083516134b98184602088016138dc565b8351908301906134cd8183602088016138dc565b01949350505050565b6001600160a01b038581168252841660208201526040810183905260806060820181905260009061350990830184613459565b9695505050505050565b6001600160a01b03841681526060602082018190526000906135379083018561341b565b9050826040830152949350505050565b602081016005831061355b5761355b6139ce565b91905290565b602081016004831061355b5761355b6139ce565b602081526000610b9a6020830184613459565b60208082526032908201527f4552433732313a207472616e7366657220746f206e6f6e20455243373231526560408201527131b2b4bb32b91034b6b83632b6b2b73a32b960711b606082015260800190565b6020808252818101527f4f776e61626c653a2063616c6c6572206973206e6f7420746865206f776e6572604082015260600190565b60208082526031908201527f4552433732313a207472616e736665722063616c6c6572206973206e6f74206f6040820152701ddb995c881b9bdc88185c1c1c9bdd9959607a1b606082015260800190565b600060e082019050825182526020830151602083015260408301516040830152606083015160608301526080830151608083015260a083015160a083015260c0830151600381106136b3576136b36139ce565b8060c08401525092915050565b602080825282516001600160a01b031682820152820151606060408301526000906136ee608084018261341b565b9050604084015160608401528091505092915050565b6020815281511515602082015260006020830151604080840152805160c060608501528051604061012086015261373f610160860182613459565b60209283015163ffffffff166101408701529183015160ff81166080870152919050604083015160ff811660a08701529150606083015160ff811660c0870152915060808301516001600160401b03811660e0870152915060a08301519250611b816101008601846001600160401b03169052565b604080519081016001600160401b03811182821017156137d6576137d66139fa565b60405290565b60405160c081016001600160401b03811182821017156137d6576137d66139fa565b604051601f8201601f191681016001600160401b0381118282101715613826576138266139fa565b604052919050565b60006001600160401b03821115613847576138476139fa565b50601f01601f191660200190565b60008219821115613868576138686139a2565b500190565b600060ff821660ff84168060ff0382111561388a5761388a6139a2565b019392505050565b6000826138a1576138a16139b8565b500490565b60008160001904831182151516156138c0576138c06139a2565b500290565b6000828210156138d7576138d76139a2565b500390565b60005b838110156138f75781810151838201526020016138df565b838111156112e15750506000910152565b600181811c9082168061391c57607f821691505b602082108114156109f157634e487b7160e01b600052602260045260246000fd5b6000600019821415613951576139516139a2565b5060010190565b600060ff821660ff81141561396f5761396f6139a2565b60010192915050565b600082613987576139876139b8565b500690565b634e487b7160e01b600052600160045260246000fd5b634e487b7160e01b600052601160045260246000fd5b634e487b7160e01b600052601260045260246000fd5b634e487b7160e01b600052602160045260246000fd5b634e487b7160e01b600052603260045260246000fd5b634e487b7160e01b600052604160045260246000fd5b6001600160a01b0381168114611dc757600080fd5b8015158114611dc757600080fd5b6001600160e01b031981168114611dc757600080fd5b60ff81168114611dc757600080fdfe5769746d6f6e733a206e6f7420696e2052616e646f6d697a696e6720737461747573a26469706673582212204101ff8bea24cf7edbbefe221b27d83939cfff544f4f9634aaf9f201c0d67dda64736f6c63430008070033608060405234801561001057600080fd5b5060405161051c38038061051c83398101604081905261002f91610169565b80516100429060009060208401906100b7565b506100568161005f60201b6100fa1760201c565b600155506102b2565b60006002826040516100719190610215565b602060405180830381855afa15801561008e573d6000803e3d6000fd5b5050506040513d601f19601f820116820180604052508101906100b19190610150565b92915050565b8280546100c390610261565b90600052602060002090601f0160209004810192826100e5576000855561012b565b82601f106100fe57805160ff191683800117855561012b565b8280016001018555821561012b579182015b8281111561012b578251825591602001919060010190610110565b5061013792915061013b565b5090565b5b80821115610137576000815560010161013c565b60006020828403121561016257600080fd5b5051919050565b60006020828403121561017b57600080fd5b81516001600160401b038082111561019257600080fd5b818401915084601f8301126101a657600080fd5b8151818111156101b8576101b861029c565b604051601f8201601f19908116603f011681019083821181831017156101e0576101e061029c565b816040528281528760208487010111156101f957600080fd5b61020a836020830160208801610231565b979650505050505050565b60008251610227818460208701610231565b9190910192915050565b60005b8381101561024c578181015183820152602001610234565b8381111561025b576000848401525b50505050565b600181811c9082168061027557607f821691505b6020821081141561029657634e487b7160e01b600052602260045260246000fd5b50919050565b634e487b7160e01b600052604160045260246000fd5b61025b806102c16000396000f3fe608060405234801561001057600080fd5b50600436106100365760003560e01c806309bd5a601461003b578063f094000214610057575b600080fd5b61004460015481565b6040519081526020015b60405180910390f35b61005f61006c565b60405161004e9190610187565b60008054610079906101ea565b80601f01602080910402602001604051908101604052809291908181526020018280546100a5906101ea565b80156100f25780601f106100c7576101008083540402835291602001916100f2565b820191906000526020600020905b8154815290600101906020018083116100d557829003601f168201915b505050505081565b600060028260405161010c919061016b565b602060405180830381855afa158015610129573d6000803e3d6000fd5b5050506040513d601f19601f8201168201806040525081019061014c9190610152565b92915050565b60006020828403121561016457600080fd5b5051919050565b6000825161017d8184602087016101ba565b9190910192915050565b60208152600082518060208401526101a68160408501602087016101ba565b601f01601f19169190910160400192915050565b60005b838110156101d55781810151838201526020016101bd565b838111156101e4576000848401525b50505050565b600181811c908216806101fe57607f821691505b6020821081141561021f57634e487b7160e01b600052602260045260246000fd5b5091905056fea2646970667358221220afa64dd4911c36a20e08bf01be893479e7d3f2a128131648b5ce5bbbbfb20f2864736f6c634300080700334f776e61626c653a2063616c6c6572206973206e6f7420746865206f776e65725769746d6f6e733a206e6f7420696e2052616e646f6d697a696e6720737461747573",
  "immutableReferences": {
    "4881": [
      {
        "length": 32,
        "start": 837
      },
      {
        "length": 32,
        "start": 3656
      },
      {
        "length": 32,
        "start": 3863
      },
      {
        "length": 32,
        "start": 4127
      },
      {
        "length": 32,
        "start": 9219
      },
      {
        "length": 32,
        "start": 10246
      },
      {
        "length": 32,
        "start": 11107
      }
    ]
  },
  "source": "// SPDX-License-Identifier: MIT\r\npragma solidity ^0.8.0;\r\n\r\nimport \"witnet-solidity-bridge/contracts/UsingWitnet.sol\";\r\nimport \"witnet-solidity-bridge/contracts/requests/WitnetRequest.sol\";\r\n\r\nimport \"@openzeppelin/contracts/token/ERC721/ERC721.sol\";\r\nimport \"@openzeppelin/contracts/access/Ownable.sol\";\r\nimport \"@openzeppelin/contracts/security/ReentrancyGuard.sol\";\r\nimport \"@openzeppelin/contracts/utils/Strings.sol\";\r\n\r\nimport \"./interfaces/IWitmonAdmin.sol\";\r\nimport \"./interfaces/IWitmonEvents.sol\";\r\nimport \"./interfaces/IWitmonSurrogates.sol\";\r\nimport \"./interfaces/IWitmonView.sol\";\r\n\r\ncontract WitmonERC721\r\n    is\r\n        ERC721,\r\n        Ownable,\r\n        ReentrancyGuard,\r\n        UsingWitnet,\r\n        IWitmonAdmin,\r\n        IWitmonEvents,\r\n        IWitmonSurrogates,\r\n        IWitmonView\r\n{\r\n    using Counters for Counters.Counter;\r\n    using Strings for bytes32;\r\n    using Strings for uint256;\r\n    using Witmons for Witmons.State;\r\n\r\n    Witmons.State internal _state;\r\n\r\n    modifier inStatus(Witmons.Status _status) {\r\n        require(\r\n            _state.status() == _status,\r\n            Witmons.statusRevertMessage(_status)\r\n        );\r\n        _;\r\n    }\r\n\r\n    modifier tokenExists(uint256 _tokenId) {\r\n        require(\r\n            _exists(_tokenId),\r\n            \"WitnetERC721: inexistent token\"\r\n        );\r\n        _;\r\n    }\r\n\r\n    constructor(\r\n            WitnetRequestBoard _witnet,\r\n            IWitmonDecorator _decorator,\r\n            string memory _name,\r\n            string memory _symbol,\r\n            address _signator,\r\n            uint8[] memory _percentileMarks,\r\n            uint256 _expirationBlocks\r\n        )\r\n        UsingWitnet(_witnet)\r\n        ERC721(_name, _symbol)\r\n    {\r\n        setDecorator(_decorator);\r\n        setParameters(\r\n            _signator,\r\n            _percentileMarks,\r\n            _expirationBlocks\r\n        );\r\n        _state.witnetRNG = new WitnetRequest(hex\"0a0f120508021a01801a0210022202100b10e807180a200a2833308094ebdc03\");\r\n    }\r\n\r\n    // ========================================================================\r\n    // --- 'ERC721Metadata' overriden functions -------------------------------\r\n\r\n    \r\n    function baseURI()\r\n        public view\r\n        virtual\r\n        returns (string memory)\r\n    {\r\n        return IWitmonDecorator(_state.decorator).baseURI();\r\n    }\r\n    \r\n    function metadata(uint256 _tokenId)\r\n        external\r\n        virtual view\r\n        tokenExists(_tokenId)\r\n        returns (string memory)\r\n    {\r\n        uint256 _eggIndex = _state.eggIndex_[_tokenId];\r\n        Witmons.Creature memory _creature = _state.creatures[_eggIndex];\r\n        assert(_tokenId == _creature.tokenId);\r\n        return IWitmonDecorator(_state.decorator).getCreatureMetadata(_creature);\r\n    }\r\n\r\n    function tokenURI(uint256 _tokenId)\r\n        public view\r\n        virtual override\r\n        tokenExists(_tokenId)\r\n        returns (string memory)\r\n    {\r\n        return string(abi.encodePacked(\r\n            baseURI(),\r\n            _tokenId.toString()\r\n        ));\r\n    }\r\n\r\n    // ========================================================================\r\n    // --- Implementation of 'IWitmonAdmin' -----------------------------------\r\n\r\n    /// Change token/creature decorator.\r\n    /// @param _decorator Decorating logic contract producing a creature's metadata, and picture.\r\n    function setDecorator(IWitmonDecorator _decorator)\r\n        public\r\n        virtual override\r\n        onlyOwner\r\n        // inState(Witmons.Status.Batching)\r\n    {\r\n        require(address(_decorator) != address(0), \"WitmonERC721: no decorator\");\r\n        _state.decorator = _decorator;\r\n        emit DecoratorSet(_decorator);\r\n    }\r\n\r\n    /// Change batch parameters. Only possible while in 'Batching' status.\r\n    /// @param _signator Externally-owned account authorize to sign egg's info before minting.\r\n    /// @param _percentileMarks Creature-category ordered percentile marks (Legendary first).\r\n    /// @param _expirationBlocks Number of blocks after Witnet randomness is generated, \r\n    /// during which creatures may be minted.\r\n    function setParameters(\r\n            address _signator,\r\n            uint8[] memory _percentileMarks,\r\n            uint256 _expirationBlocks\r\n        )\r\n        public\r\n        virtual override\r\n        onlyOwner\r\n        inStatus(Witmons.Status.Batching)\r\n    {\r\n        require(_signator != address(0), \"WitmonERC721: no signator\");\r\n        require(_percentileMarks.length == uint8(Witmons.CreatureCategory.Common) + 1, \"WitmonERC721: bad percentile marks\");\r\n        _state.params.percentileMarks = new uint8[](_percentileMarks.length);\r\n        uint8 _checkSum; \r\n        for (uint8 _i = 0; _i < _percentileMarks.length; _i ++) {\r\n            uint8 _mark = _percentileMarks[_i];\r\n            _state.params.percentileMarks[_i] = _mark;\r\n            _checkSum += _mark;\r\n        }\r\n        require(_checkSum == 100, \"WitmonERC721: bad percentile checksum\");\r\n        \r\n        _state.params.signator = _signator;\r\n        _state.params.expirationBlocks = _expirationBlocks;\r\n        \r\n        emit BatchParameters(\r\n            _signator,\r\n            _percentileMarks,\r\n            _expirationBlocks\r\n        );\r\n    }\r\n\r\n    /// Stops batching, which means: (a) parameters cannot change anymore, and (b) a \r\n    /// random number will requested to the Witnet Decentralized Oracle Network.\r\n    /// @dev While request is being attended, tender will remain in 'Randomizing' status.\r\n    function stopBatching()\r\n        external payable\r\n        virtual override\r\n        nonReentrant\r\n        onlyOwner\r\n        inStatus(Witmons.Status.Batching)\r\n    {   \r\n        // Send the request to Witnet and store the ID for later retrieval of the result:\r\n        uint256 _witnetReward;\r\n        (_state.witnetQueryId, _witnetReward) = _witnetPostRequest(_state.witnetRNG);\r\n\r\n        // Transfers back unused funds:\r\n        if (msg.value > _witnetReward) {\r\n            payable(msg.sender).transfer(msg.value - _witnetReward);\r\n        }\r\n    }\r\n\r\n    /// Starts hatching, which means that minting of creatures will start to be possible,\r\n    /// until the hatching period expires (see `_state.expirationBlocks`).\r\n    /// @dev During the hatching period the tender will remain in 'Hatching status'. Once the\r\n    /// @dev hatching period expires, tender status will automatically change to 'Freezed'.\r\n    function startHatching()\r\n        external\r\n        virtual override\r\n        onlyOwner\r\n        inStatus(Witmons.Status.Randomizing)\r\n    {\r\n        uint _queryId = _state.witnetQueryId;\r\n        require(\r\n            _witnetCheckResultAvailability(_queryId),\r\n            \"WitmonERC721: randomness not yet solved\"\r\n        );\r\n        Witnet.Result memory _result = witnet.readResponseResult(_queryId);\r\n        if (_result.success) {\r\n            _result.value.buffer.data[1] = 0x1f; // 31-byte randomness\r\n            bytes32 _randomness = _bytesToBytes32(witnet.asBytes(_result));\r\n            _state.hatchingBlock = block.number;\r\n            _state.witnetRandomness = _randomness;\r\n            emit WitnetResult(_randomness);\r\n        } else {\r\n            _state.witnetQueryId = 0;\r\n            string memory _errorMessage;\r\n            // Try to read the value as an error message, catch error bytes if read fails\r\n            try witnet.asErrorMessage(_result)\r\n                returns (Witnet.ErrorCodes, string memory e)\r\n            {\r\n                _errorMessage = e;\r\n            }\r\n            catch (bytes memory _errorBytes) {\r\n                _errorMessage = string(_errorBytes);\r\n            }\r\n            emit WitnetError(_errorMessage);\r\n        }\r\n    }\r\n\r\n    // ========================================================================\r\n    // --- Implementation of 'IWitmonSurrogates' -------------------------------\r\n\r\n    function mintCreature(\r\n            address _eggOwner,\r\n            uint256 _eggIndex,            \r\n            uint256 _eggRanking,\r\n            uint256 _eggScore,\r\n            uint256 _totalClaimedEggs,\r\n            bytes calldata _signature\r\n        )\r\n        external\r\n        virtual override\r\n        nonReentrant\r\n        inStatus(Witmons.Status.Hatching)\r\n    {\r\n        _verifySignatorSignature(\r\n            _eggOwner,\r\n            _eggIndex,\r\n            _eggRanking,\r\n            _eggScore,\r\n            _totalClaimedEggs,\r\n            _signature\r\n        );\r\n\r\n        // Verify not already minted:\r\n        require(\r\n            _state.creatures[_eggIndex].tokenId == 0,\r\n            \"WitmonERC721: already minted\"\r\n        );\r\n\r\n        // Increment token supply:\r\n        _state.totalSupply.increment();\r\n        uint256 _tokenId = _state.totalSupply.current();\r\n\r\n        // Fulfill creature data:\r\n        Witmons.Creature memory _creature = _mintCreature(\r\n            _tokenId,\r\n            block.number,\r\n            _eggIndex,\r\n            _eggRanking,\r\n            _eggScore,\r\n            _totalClaimedEggs,\r\n            _signature\r\n        );\r\n\r\n        // Write to storage:\r\n        _state.creatures[_eggIndex] = _creature;\t\t\r\n        _state.eggIndex_[_tokenId] = _eggIndex;\r\n\r\n        // Mint the token:\r\n        _safeMint(_eggOwner, _tokenId);\r\n        emit NewCreature(_eggIndex, _tokenId);\r\n    }\r\n\r\n    function previewCreatureImage(\r\n            address _eggOwner,\r\n            uint256 _eggIndex,\r\n            uint256 _eggRanking,\r\n            uint256 _eggScore,\r\n            uint256 _totalClaimedEggs,\r\n            bytes calldata _signature\r\n        )\r\n        external view\r\n        virtual override\r\n        inStatus(Witmons.Status.Hatching)\r\n        returns (string memory)\r\n    {\r\n        _verifySignatorSignature(\r\n            _eggOwner,\r\n            _eggIndex,\r\n            _eggRanking,\r\n            _eggScore,\r\n            _totalClaimedEggs,\r\n            _signature\r\n        );\r\n\r\n        // Preview creature image:\r\n        return _state.decorator.getCreatureImage(\r\n            _mintCreature(\r\n                0,\r\n                0,\r\n                _eggIndex,                \r\n                _eggRanking,\r\n                _eggScore,\r\n                _totalClaimedEggs,\r\n                _signature\r\n            )\r\n        );\r\n    }\r\n\r\n    // ========================================================================\r\n    // --- Implementation of 'IWitmonView' ------------------------------------\r\n\r\n    function getCreatureData(uint256 _eggIndex)\r\n        public view\r\n        override\r\n        returns (Witmons.Creature memory)\r\n    {\r\n        return _state.creatures[_eggIndex];\r\n    }\r\n\r\n    function getCreatureImage(uint256 _eggIndex)\r\n        public view\r\n        override\r\n        returns (string memory)\r\n    {\r\n        require(\r\n            getCreatureStatus(_eggIndex) == Witmons.CreatureStatus.Alive,\r\n            \"WitmonERC721: not alive yet\"\r\n        );\r\n        Witmons.Creature memory _creature = _state.creatures[_eggIndex];\r\n        return IWitmonDecorator(_state.decorator).getCreatureImage(_creature);\r\n    }\r\n\r\n    function getCreatureStatus(uint256 _eggIndex)\r\n        public view\r\n        virtual override\r\n        returns (Witmons.CreatureStatus)\r\n    {\r\n        Witmons.Creature storage _creature = _state.creatures[_eggIndex];\r\n        if (_creature.eggPhenotype != bytes32(0)) {\r\n            return Witmons.CreatureStatus.Alive;\r\n        } else {\r\n            Witmons.Status _tenderStatus = _state.status();\r\n            if (_tenderStatus == Witmons.Status.Hatching) {\r\n                return Witmons.CreatureStatus.Hatching;\r\n            } else if (_tenderStatus == Witmons.Status.Freezed) {\r\n                return Witmons.CreatureStatus.Freezed;\r\n            } else {\r\n                return Witmons.CreatureStatus.Incubating;\r\n            }\r\n        }\r\n    }\r\n\r\n    function getDecorator()\r\n        external view\r\n        override\r\n        returns (IWitmonDecorator)\r\n    {\r\n        return _state.decorator;\r\n    }\r\n\r\n    function getParameters()\r\n        external view\r\n        override\r\n        returns (Witmons.Parameters memory)\r\n    {\r\n        return _state.params;\r\n    }\r\n\r\n    function getStats()\r\n        public view\r\n        override\r\n        returns (\r\n            uint256 _totalSupply\r\n        )\r\n    {\r\n        return (\r\n            _state.totalSupply.current()\r\n        );\r\n    }\r\n\r\n    function getStatus()\r\n        public view\r\n        override\r\n        returns (Witmons.Status)\r\n    {\r\n        return _state.status();\r\n    }\r\n\r\n    // ------------------------------------------------------------------------\r\n    // --- INTERNAL VIRTUAL METHODS -------------------------------------------\r\n    // ------------------------------------------------------------------------\r\n\r\n    function _mintCreature(\r\n            uint256 _tokenId,\r\n            uint256 _tokenInception,\r\n            uint256 _eggIndex,\r\n            uint256 _eggRanking,\r\n            uint256 _eggScore,\r\n            uint256 _totalClaimedEggs,\r\n            bytes memory _signature\r\n        )\r\n        internal view\r\n        virtual\r\n        returns (Witmons.Creature memory)\r\n    {\r\n        uint8 _percentile100 = _eggRanking > _totalClaimedEggs\r\n            ? 100 \r\n            : uint8((_eggRanking * 100) / _totalClaimedEggs)\r\n        ;\r\n        return Witmons.Creature({\r\n            tokenId: _tokenId,\r\n            eggBirth: _tokenInception,\r\n            eggCategory: _state.creatureCategory(_percentile100),\r\n            eggIndex: _eggIndex,\r\n            eggScore: _eggScore,\r\n            eggRanking: _eggRanking,\r\n            eggPhenotype: keccak256(abi.encodePacked(\r\n                _signature,\r\n                _state.witnetRandomness\r\n            ))\r\n        });\r\n    }\r\n\r\n    function _verifySignatorSignature(\r\n            address _eggOwner,\r\n            uint256 _eggIndex,\r\n            uint256 _eggRanking,\r\n            uint256 _eggScore,\r\n            uint256 _totalClaimedEggs,\r\n            bytes memory _signature\r\n        )\r\n        internal view\r\n        virtual\r\n    {\r\n        // Verify signator:\r\n        bytes32 _eggHash = keccak256(abi.encodePacked(\r\n            _eggOwner,\r\n            _eggIndex,\r\n            _eggRanking,\r\n            _eggScore,\r\n            _totalClaimedEggs\r\n        ));\r\n        require(\r\n            Witmons.recoverAddr(_eggHash, _signature) == _state.params.signator,\r\n            \"WitmonERC721: bad signature\"\r\n        );\r\n    }\r\n    \r\n    // ------------------------------------------------------------------------\r\n    // --- PRIVATE METHODS ----------------------------------------------------\r\n    // ------------------------------------------------------------------------\r\n\r\n    function _bytesToBytes32(bytes memory _bb)\r\n        private pure\r\n        returns (bytes32 _r)\r\n    {\r\n        uint _len = _bb.length > 32 ? 32 : _bb.length;\r\n        for (uint _i = 0; _i < _len; _i ++) {\r\n            _r |= bytes32(_bb[_i] & 0xff) >> (_i * 8);\r\n        }\r\n    }\r\n}\r\n",
  "sourcePath": "C:/Users/guill/github/otherplane/witmon/packages/core/contracts/WitmonERC721.sol",
  "compiler": {
    "name": "solc",
    "version": "0.8.7+commit.e28d00a7.Emscripten.clang"
  },
  "schemaVersion": "3.4.1",
  "updatedAt": "2021-10-14T09:58:20.848Z",
  "networkType": "ethereum",
  "devdoc": {
    "kind": "dev",
    "methods": {
      "approve(address,uint256)": {
        "details": "See {IERC721-approve}."
      },
      "balanceOf(address)": {
        "details": "See {IERC721-balanceOf}."
      },
      "getApproved(uint256)": {
        "details": "See {IERC721-getApproved}."
      },
      "isApprovedForAll(address,address)": {
        "details": "See {IERC721-isApprovedForAll}."
      },
      "name()": {
        "details": "See {IERC721Metadata-name}."
      },
      "owner()": {
        "details": "Returns the address of the current owner."
      },
      "ownerOf(uint256)": {
        "details": "See {IERC721-ownerOf}."
      },
      "renounceOwnership()": {
        "details": "Leaves the contract without owner. It will not be possible to call `onlyOwner` functions anymore. Can only be called by the current owner. NOTE: Renouncing ownership will leave the contract without an owner, thereby removing any functionality that is only available to the owner."
      },
      "safeTransferFrom(address,address,uint256)": {
        "details": "See {IERC721-safeTransferFrom}."
      },
      "safeTransferFrom(address,address,uint256,bytes)": {
        "details": "See {IERC721-safeTransferFrom}."
      },
      "setApprovalForAll(address,bool)": {
        "details": "See {IERC721-setApprovalForAll}."
      },
      "setDecorator(address)": {
        "params": {
          "_decorator": "Decorating logic contract producing a creature's metadata, and picture."
        }
      },
      "setParameters(address,uint8[],uint256)": {
        "params": {
          "_expirationBlocks": "Number of blocks after Witnet randomness is generated,  during which creatures may be minted.",
          "_percentileMarks": "Creature-category ordered percentile marks (Legendary first).",
          "_signator": "Externally-owned account authorize to sign egg's info before minting."
        }
      },
      "startHatching()": {
        "details": "During the hatching period the tender will remain in 'Hatching status'. Once thehatching period expires, tender status will automatically change to 'Freezed'."
      },
      "stopBatching()": {
        "details": "While request is being attended, tender will remain in 'Randomizing' status."
      },
      "supportsInterface(bytes4)": {
        "details": "See {IERC165-supportsInterface}."
      },
      "symbol()": {
        "details": "See {IERC721Metadata-symbol}."
      },
      "transferFrom(address,address,uint256)": {
        "details": "See {IERC721-transferFrom}."
      },
      "transferOwnership(address)": {
        "details": "Transfers ownership of the contract to a new account (`newOwner`). Can only be called by the current owner."
      }
    },
    "version": 1
  },
  "userdoc": {
    "kind": "user",
    "methods": {
      "setDecorator(address)": {
        "notice": "Change token/creature decorator."
      },
      "setParameters(address,uint8[],uint256)": {
        "notice": "Change batch parameters. Only possible while in 'Batching' status."
      },
      "startHatching()": {
        "notice": "Starts hatching, which means that minting of creatures will start to be possible, until the hatching period expires (see `_state.expirationBlocks`)."
      },
      "stopBatching()": {
        "notice": "Stops batching, which means: (a) parameters cannot change anymore, and (b) a  random number will requested to the Witnet Decentralized Oracle Network."
      }
    },
    "version": 1
  }
}